:020000040800F2
:10000000B8CE0220710200088D390008132F0008B5
:10001000DD2F0008D1070008714B00080000000028
:100020000000000000000000000000001147000870
:10003000D307000800000000AF3900089947000806
:100040008B0200088B0200088B0200088B0200085C
:100050008B0200088B0200088B0200088B0200084C
:100060008B0200088B0200088B0200088B0200083C
:100070008B0200088B0200088B0200088B0200082C
:100080008B0200088B0200088B0200088B0200081C
:100090008B0200088B0200088B0200088B0200080C
:1000A0008B0200088B0200088B0200088B020008FC
:1000B0008B0200088B0200088B0200088B020008EC
:1000C0008B0200088B0200088B0200088B020008DC
:1000D0008B020008054B00088B0200088B02000809
:1000E0008B0200088B0200088B0200088B020008BC
:1000F0008B0200088B0200088B0200088B020008AC
:100100008B0200088B0200088B0200088B0200089B
:100110008B0200088B0200088B0200088B0200088B
:100120008B0200088B0200088B0200088B0200087B
:100130008B0200088B0200088B0200088B0200086B
:100140008B0200088B0200088B0200088B0200085B
:100150008B0200088B0200088B0200088B0200084B
:100160008B0200088B0200088B0200088B0200083B
:100170008B0200088B0200088B02000800000000C0
:100180008B0200088B0200088B0200088B0200081B
:100190008B0200088B0200088B0200088B0200080B
:1001A0008B0200088B0200088B02000800F002F8A6
:1001B00000F047F80AA090E8000C82448344AAF1BA
:1001C0000107DA4501D100F03CF8AFF2090EBAE8B8
:1001D0000F0013F0010F18BFFB1A43F0010318477B
:1001E000D86C0000F86C0000103A24BF78C878C1C1
:1001F000FAD8520724BF30C830C144BF04680C602D
:10020000704700000023002400250026103A28BF74
:1002100078C1FBD8520728BF30C148BF0B60704778
:10022000642900F07D80782900F0B680732900F001
:100230006A82002070471FB506F0EDFD1FBD10B5A6
:1002400010BD00F093FA1146FFF7F5FF06F0E0F954
:1002500000F0B1FA03B4FFF7F2FF03BC04F032FE82
:1002600030BF72B6704762B6704780F30888704737
:100270000948804709480047FEE7FEE7FEE7FEE73A
:10028000FEE7FEE7FEE7FEE7FEE7FEE70448054976
:10029000054A064B704700009D470008AD01000865
:1002A000B8C80220B8CE0220B8CA0220B8CA0220BC
:1002B000704700000FB4044910B503AA029800F07B
:1002C00027FA10BC5DF814FB2400002070B50C4622
:1002D0000546012A05D02878800600D5EA69002362
:1002E00002E0012305E05B1C934202D2E05C00289F
:1002F000F9D1A869E618C01AA861286A18442862CA
:100300002846AFF3008004E0D5E9012114F8010B81
:100310009047B442F8D32846AFF3008070BD000088
:100320002DE9F0410646002410687529314616A5CE
:1003300010D0AFF30080002802DA404213A507E096
:1003400031688A0701D512A502E0490704D511A535
:10035000012401E0AFF3008000210A2206F1240706
:1003600009E0B0FBF2FCB0FBF2F302FB1C00303002
:1003700078541846491C0028F3D123462A463046B3
:10038000BDE8F04100F054B9000000002D0000006D
:100390002B0000002000000070B504460D462146E9
:1003A0001068AFF300802188090502D50F4A7A440E
:1003B00002E00E4A7A440E32002104F1240305E0E3
:1003C00000F00F060009965D5E54491C0028F7D125
:1003D00020780023000704D5702D02D009B1022334
:1003E00011322046BDE8704000F022B9DE6A0000FC
:1003F0002DE9F0410F460546002028622846E968AD
:10040000884770B3252805D0D5E901219047286A8F
:10041000401CF2E7E9682846002688476C28044615
:100420000AD0682C08D04C2C35D06A2C31D0742CD2
:1004300031D07A2C2FD016E0E96806462846884746
:10044000B042044608D16C2E23D04FF48066284673
:10045000E9688847044606E06C2E03D04FF48076A6
:1004600001E01EE04026E4B1A4F14100192802D8C1
:10047000203446F400663A46214628462E60FFF7AF
:10048000CFFE60B1012808D0FF1D27F0070708370D
:10049000B4E78026DBE70026D9E73F1DAEE720461C
:1004A000B2E7286ABDE8F081032A40F2308010F0FC
:1004B000030C00F0158011F8013BBCF1020F6244FF
:1004C00098BF11F801CB00F8013B38BF11F8013B90
:1004D000A2F1040298BF00F801CB38BF00F8013B3D
:1004E00011F0030300F02580083AC0F0088051F8AD
:1004F000043B083A51F804CBA0E80810F5E7121DB8
:100500005CBF51F8043B40F8043BAFF30080D207D6
:1005100024BF11F8013B11F801CB48BF11F8012BA2
:1005200024BF00F8013B00F801CB48BF00F8012BC5
:10053000704710B5203AC0F00B80B1E81850203A4F
:10054000A0E81850B1E81850A0E81850BFF4F5AF73
:100550005FEA027C24BFB1E81850A0E8185044BFFD
:1005600018C918C0BDE810405FEA827C24BF51F86A
:10057000043B40F8043B08BF7047D20728BF31F85E
:10058000023B48BF11F8012B28BF20F8023B48BFAF
:1005900000F8012B70474FF000020429C0F01280D0
:1005A00010F0030C00F01B80CCF1040CBCF1020F26
:1005B00018BF00F8012BA8BF20F8022BA1EB0C01FB
:1005C00000F00DB85FEAC17C24BF00F8012B00F8F1
:1005D000012B48BF00F8012B70474FF0000200B517
:1005E000134694469646203922BFA0E80C50A0E856
:1005F0000C50B1F12001BFF4F7AF090728BFA0E804
:100600000C5048BF0CC05DF804EB890028BF40F8CF
:10061000042B08BF704748BF20F8022B11F0804F11
:1006200018BF00F8012B704770477047704770473C
:100630002DE9F0470D4699469246044600F12408FC
:100640000168880604D5E06921F01001216000E00E
:100650000120A84201DD471B00E00027A1697A19AB
:1006600002EB0900081AA0612078C00602D42046D7
:10067000AFF30080002608E0D4E901211AF8060053
:100680009047206A401C761C20624E45F4DB20789F
:10069000C0060AD52046AFF3008006E0D4E9012168
:1006A00030209047206A401C2062381EA7F10107C5
:1006B000F4DC07E0D4E9012118F805009047206A2E
:1006C000401C2062281EA5F10105F3DC2046AFF393
:1006D00000802078000602D50220BDE8F0870120C6
:1006E000FBE710B5436913B1AFF3008001E0FFF7FA
:1006F000EDFD012010BD127800F124010A700022E6
:100700004A700122EDE711684FF0FF32E9E700007F
:10071000074B70B50D467B4400F011F8044628469F
:1007200000F020F810B14FF0FF3070BD204670BDD2
:10073000935C000001694A1C02610878704700B5AB
:100740008FB0CDE901310021059105497944CDE90A
:10075000031011466846FFF74BFE0FB000BD0000C6
:10076000E5FFFFFF007B00F080007047754600F05A
:100770002BF8AE4605006946534620F00700854633
:1007800018B020B5FFF782FDBDE820404FF000060D
:100790004FF000074FF000084FF0000B21F0070169
:1007A000AC46ACE8C009ACE8C009ACE8C009ACE8AC
:1007B000C0098D46704710B50446AFF3008020464F
:1007C000BDE81040FFF746BD0048704754C80220FE
:1007D000FEE77047002229B1012922D0022923D047
:1007E0004FF440720B2800D9001D11490B6823F407
:1007F00040730B600B6813430B600A6822F0F80229
:100800000A600A68F82393FAA3F3B3FA83F39840D3
:1008100040F0020002430A60086840F4803008603B
:1008200070474FF48072DDE74FF40072DAE70000A2
:10083000103C02401348016889050FD5016821F476
:1008400000710160016841F400610160016821F4F8
:1008500000610160016841F40071016001684905AF
:100860000FD5016821F480610160016841F4805175
:100870000160016821F480510160016841F48061E8
:1008800001607047003C02400D48026822F440724B
:1008900002600268026003290AD0012901680CD0B5
:1008A00041F400410160016841F48031016070470A
:1008B000016848F204021143F4E741F00401F1E752
:1008C000103C0240064A136823F440731360136817
:1008D0001360136843F00103136001707047000058
:1008E000103C0240084910B50C6824F440740C60B8
:1008F0000C6844F440740C600C6844F001040C6013
:100900000260436010BD0000103C0240074A1368BB
:1009100023F440731360136843F480731360136807
:1009200043F001031360018070470000103C024057
:10093000074A136823F440731360136843F4007389
:100940001360136843F001031360016070470000F7
:10095000103C02401F490868C043C2061E4805D427
:10096000C26942F01002C26110220A600A68D243D2
:10097000920605D4C26942F00802C26120220A60D0
:100980000A68D243520605D4C26942F00402C26129
:1009900040220A600A68D243120605D4C26942F0B6
:1009A0000202C26180220A600A68D243D20506D4DC
:1009B000C26942F00102C2614FF480720A600A68A3
:1009C000D243920705D4C26942F02002C2610220DC
:1009D000086070470C3C02409802002070B5134933
:1009E00004460020C86100F06DFE0546104E09E087
:1009F000601C07D024B100F065FE401BA04201D965
:100A0000032070BD3068C043C003F1D53068C00713
:100A100001D00120306031684FF4F970884301D073
:100A2000002070BDFFF796FF012070BD98020020E6
:100A30000C3C0240102A0FD0C26AD1E9002342EADE
:100A400003220B89097B4FEA034343EA016142EA2F
:100A5000010203D1C26002E0C268EEE7C2624FF059
:100A600000007047102A0FD0826AD1E9002342EAC1
:100A700003220B89097B4FEA034343EA016142EAFF
:100A8000010203D1826002E08268EEE782624FF0E9
:100A90000000704730B50A68102A1AD0026A104B5D
:100AA00002EA0302D1E9013443EA0403D1E9034530
:100AB00044EA050443EA04034C69896943EA442390
:100AC00043EA413141EA020141F0080103D10160EA
:100AD00002E00268E3E701624FF0000030BD000071
:100AE0008101F0FF30B5D1E901231A43D1E9033484
:100AF00023431A434B690D681A438B691A43D1E9A2
:100B00000734012D496A05686FF30E0505D01A43B5
:100B100022430A432A43026008E0234329430B434C
:100B2000416803606FF30E010A434260002030BD4C
:100B3000426942EA4101416100207047F8B514461C
:100B40000546D1E9000210438A686FF01F03C968A7
:100B500003EB421242EA412108430090286100F071
:100B6000B1FD064609E0601C07D024B100F0AAFDE3
:100B7000801BA04201D90320F8BDA8698006F2D4E9
:100B80000020F8BDF0B56FF00F05D1E9003405EB9A
:100B900004145B1E2E0123438C682F0306EB0424F0
:100BA0004FEA054C23430D8A8E8ACC68097E4FF0AC
:100BB0007F4E07EB05450CEB06560EEB0161012A53
:100BC0000CD082683F1107EB043423432B4333439B
:100BD00002F070420B43134383600FE0C2682B4363
:100BE0000B4302F070428168134301F0704221030D
:100BF000A1F5805131431143C36081600020F0BDF5
:100C000038B50446094D4FF0AA300090A879042366
:100C100060436A46002102F0A9FEA87904236043DC
:100C20006A460021401C02F0A1FE38BD9817002042
:100C30002DE9FC47254F89460646002500240DF185
:100C4000040810E0CDF80080798870438B084A468C
:100C5000002102F023FD7888BDF80410B1EB900F5D
:100C600004D1641CA4B2B879A042EBD8B879A042F0
:100C700002D10020BDE8FC87304602F031FB20B1F4
:100C8000294613A0FFF716FB16E0B9F1FF3F13D07A
:100C900000200AE07A8806FB001093080022114623
:100CA00002F03AFEBDF80400401CADF80400B8792B
:100CB000BDF804108842EDD86D1CADB2032DBDD334
:100CC000314609A0FFF7F6FA0120D3E79817002074
:100CD0006572726F7220657261736520626C6F63FA
:100CE0006B3A25640D0A000062616420626C6F63D8
:100CF0006B20636865636B65643A25640D0A0000C8
:100D000038B50446104D00208DF80000A879012365
:100D100060436A46002102F0F5FC9DF80000FF28C0
:100D200001D0022038BDA879012360436A46002122
:100D3000401C02F0E7FC9DF80000FF2801D00120D4
:100D400038BD002038BD0000981700202DE9F84F6D
:100D500091462F4A8A461D469179B0FBF1F3B0FBCC
:100D6000F1F801FB130B404600F0B8F8284907469C
:100D70004889B84202D20120BDE8F88F002428E05B
:100D80005C4516D3ADB14A88A2EB0A01A94201D253
:100D90008EB200E0AEB207FB004108FB00404B46BC
:100DA0005246009602F01CF94FF0000AB144AD1B08
:100DB00005E007FB004108FB004002F0E5F930B117
:100DC0003846FFF71DFF012000F024F8CBE7641C34
:100DD000A4B20F498879A042D2D80D46A879A04282
:100DE00014D1384600F028FA404602F079FA002083
:100DF0006A89696908E031F81040444502D121F858
:100E0000107003E0401C80B28242F4D80020B3E7A7
:100E100098170020F8B506460021294D4FF6FF70BF
:100E200003E06A6922F81100491C6A898A42F8D8ED
:100E30000020A88104461CE0A879042360436A4688
:100E4000002102F05FFC9DF80000FF280CD1B6B134
:100E5000A879012360436A460021401C02F052FC3D
:100E60009DF80000FF280AD0214616A0FFF722FABD
:100E7000641C6989A142DFD800206A6916E09DF8E8
:100E800002009DF8031000EB01206989814202D91C
:100E9000696921F81040A889401CA881E8E732F868
:100EA00010308B4201D3E88102E0401C8142F6D829
:100EB000E889642801D20220F8BD0020F8BD0000B6
:100EC0009817002062616420626C6F636B20696E0A
:100ED0006465783A25640D0A0000000070B5104E74
:100EE000104C71892268491E914200D2216000F0A5
:100EF00001052946206800F017F8411C0AD17089C5
:100F00002168401E884207D92946206000F00CF86D
:100F1000411C01D0206070BD4FF0FF3070BD00005B
:100F2000981700202C000020F8B50D460021401C29
:100F30000091040012D00C4F012626EA0400A842BA
:100F40000AD1B879611E484304236A46002102F0A1
:100F5000D9FB0098401C04D0641EEED14FF0FF3046
:100F6000F8BD601EF8BD000098170020F8B5254EAA
:100F700000273C46B78113E02046FFF7C1FE70B959
:100F8000204602F0ADF938B121461FA0FFF792F9D3
:100F90002046FFF735FE02E0B089401CB081641C9A
:100FA0007089A042E8D8B1891BA0FFF783F9B08906
:100FB000642801D20120F8BDC0EB4010642100EB91
:100FC0004000B0FBF1F50024009710E02046FFF749
:100FD00097FE58B9B079022360436A46194602F079
:100FE000C5FC0098401C0090A84203D0641C708986
:100FF000A042EBD80120FFF70DFF0028DBD0022034
:10100000F8BD00009817002042616420626C6F6395
:101010006B3A25640D0A0000676F6F645F626C6F46
:10102000636B6E756D3A25640D0A000010B502F011
:1010300083F900BB184C616911B1002005F062FD15
:1010400060894100002005F069FD60616189490007
:10105000FFF7A1FA606970B10120FFF7DBFE60B114
:101060000EA0FFF727F9FFF781FF90B111A0FFF75E
:1010700021F9022010BD012010BD618912A0FFF7E7
:1010800019F9A18916A0FFF715F9E18919A0FFF751
:1010900011F9002010BD000098170020666F726DD6
:1010A0006174206E616E6420666C6173682E2E2EF2
:1010B0000D0A0000666F726D6174206661696C656F
:1010C00064210D0A00000000746F74616C20626C72
:1010D0006F636B206E756D3A25640D0A0000000089
:1010E000676F6F6420626C6F636B206E756D3A255D
:1010F000640D0A0076616C696420626C6F636B201A
:101100006E756D3A25640D0A000000000549CA8914
:10111000824202D24FF6FF707047496931F81000E1
:1011200070470000981700202DE9FF5F9B46154689
:101130008246002679E03F4C6088B0FBF5F1A0794B
:10114000414301988319B3FBF1F0FFF7DFFF618999
:10115000814203D8012004B0BDE8F09F354C61887E
:10116000A479B1FBF5F26243B3FBF2F702FB17324D
:101170006A43B2FBF1F300FB0437B2FBF1F001FB71
:101180001028A1EB0800B0FBF5F084B2ABEB060031
:10119000A04200D284B204FB05F91FFA89F31FFABA
:1011A00088F15246384602F05BF9032809D11FFA4C
:1011B00089F31FFA88F15246384602F051F90328A4
:1011C00004D004282ED068B30220C4E74B461FFA8F
:1011D00088F152463846FFF7B9FDDFF858804FF0E6
:1011E000FF3198F80600B7FBF0F0FFF721FD80B95A
:1011F00098F806000021B7FBF0F0FFF719FD8146D3
:1012000098F80600B7FBF0F002F06AF8B9F1000FA9
:1012100008D098F80600B7FBF0F0FFF7F1FC0120CA
:10122000FFF7F8FD05FB04AA26445E4583D30020A2
:1012300091E700009817002008B5CC218DF8001028
:10124000044901236A4689794843194602F08EFB16
:1012500008BD0000981700202DE9FF4F85B0154606
:1012600000274FF0FF3B7BE0404C6088A179B0FB4A
:10127000F5F048430699CB19B3FBF0F0FFF746FFB2
:1012800061898046414503D8012009B0BDE8F08F4F
:10129000364A50889279B0FBF5F15143B3FBF1F433
:1012A00001FB143101FB05FABAFBF0F308FB023134
:1012B000BAFBF0F200FB12A9A0EB090080B2B0FB70
:1012C000F5F002910899ADF80400C91B8CB20391A6
:1012D000844200D3044601A804FB05F600901FFADF
:1012E00089F1C6F38F034FF0FF32029802F0D6F96E
:1012F00008B10220C9E7BDF80400B0EB960F0FD18A
:10130000B3B21FFA89F1059A029802F059FA38B976
:101310004146C34520D00846FFF78EFFC346D8B1EB
:101320001248817940884143A1EB0A00B0FBF5F0F7
:10133000039980B28CB2ADF80400844200D3044615
:1013400004FB05F61FFA89F13346059A0298FFF768
:10135000FDFC08B1032098E7059827443044059028
:101360000898874280D300208FE70000981700205C
:1013700031B500F0A7F9044600F0A4F90099001B6C
:101380008842F9D338BD00002DE9F04704462348D0
:101390000E46017E01290AD00121804601764CF2D9
:1013A00050394846FFF71AFB020003D030E0022014
:1013B000BDE8F0874FF0FF3030602068184F0128FB
:1013C00001D0A5681DE0207C6168FFF75DFA484602
:1013D000FFF704FB0246386848F20401884338608E
:1013E00014E0217C2846FFF7F5F94846FFF7F6FAA6
:1013F0000200386820F0FA00386001D0356005E05E
:101400006D1CD4E902100844A842EAD8FFF712FA8A
:10141000002188F818101046CAE700009802002042
:10142000103C02400348016841F000410160002087
:1014300070470000103C02402DE9F0471B4E054666
:101440001446307E1F468946012808D00120307698
:101450004CF250384046FFF7C1FA18B114E00220B0
:10146000BDE8F0879DB1012D16D0022D19D022467E
:101470003B464846FFF736FA4046FFF7AFFA0C49BD
:101480000A6822F001020A6000213176E8E7E1B241
:101490004846FFF717FAEFE7A1B24846FFF736FADA
:1014A000EAE721464846FFF743FAE5E798020020BD
:1014B000103C024006480068002807DA0448054945
:1014C0000C3801600449016000207047012070471A
:1014D000103C024023016745AB89EFCD2DE9F84F61
:1014E000DFF8A091002209F1040A0AF1040B4FF081
:1014F0000F080BF1040E01260B6896403340B342EF
:1015000071D14C68022C01D0122C11D1D40800EBFF
:1015100084073D6A5407E40E08FA04FC25EA0C052A
:10152000D1F810C00CFA04FC4CEA050CC7F820C036
:1015300007685400032591F804C0A5400CF0030C83
:10154000AF430CFA04FC4CEA070CC0F800C04F682B
:10155000012F05D0022F03D0112F01D0122F11D14E
:101560008768D1F80CC0AF430CFA04FC4CEA070CB6
:10157000C0F808C04768B7430E79C6F30016964016
:101580003E434660C668AE438D68A5403543C5609E
:101590004C68E4006FD53C4C256845F480452560D7
:1015A000246822F0030504F480440094374C2E197B
:1015B000D6F808789407250F08FA05F4A743344CA9
:1015C000A04201D100242EE0324CA04201D10124DE
:1015D00029E0314CA04201D1022424E02F4CA0424A
:1015E00002D103241FE046E02D4CA04201D1042487
:1015F00019E02C4CA04201D1052414E02A4CA04251
:1016000001D106240FE0294CA04201D107240AE0B1
:10161000274CA04201D1082405E0264CA04201D16C
:10162000092400E00A24AC403C43C6F80848D9F835
:1016300000404D464E689C43F60300D51C432C6089
:10164000DAF8004055464E689C43B60300D51C436B
:101650002C60DBF800405D464E689C43F60200D5E6
:101660001C432C60DEF8004075464E689C43B60271
:1016700000D51C432C60521C102AFFF43CAFBDE87F
:10168000F88F0000003C0140443802400030014027
:10169000000002400004024000080240000C02402A
:1016A000001002400014024000180240001C0240DA
:1016B00000200240002402400AB181617047090401
:1016C000FBE7000001480068704700001800002098
:1016D00002480168491C01607047000018000020A2
:1016E0000B4810B5016841F400710160016841F4D4
:1016F00080610160016841F480710160052000F0A3
:10170000D3F80F2000F006F800F015F8002010BD07
:10171000003C024010B5044600F020FA4FF47A7104
:10172000B0FBF1F001F085FA00222146501E00F0D6
:101730009BF8002010BD08B50020009008BD70B5D2
:1017400015460E46040003D094F8210010B107E0BE
:10175000012070BD002084F82000204600F020F811
:10176000211D2068FFF796F9D4E900023146FFF702
:1017700079F9D4E900022946FFF75CF9606810287E
:10178000206808D0016A41F004010162012084F858
:101790002100002070BD016841F004010160F5E7FF
:1017A00070B5274886B00024016841F0010101604E
:1017B000006800F00100059021480838016841F0F8
:1017C00008010160016801F008010591016841F01C
:1017D00010010160016801F010010591016841F0FC
:1017E000400101600068032500F0400005904020A2
:1017F000CDE900040120CDE90205124E69463046CC
:10180000FFF76CFE7015009001A9022081E83100FD
:101810000C20049069460C48FFF760FE4DF633003B
:101820000090694602943046FFF758FE4FF4F0608E
:10183000009069460548FFF751FE06B070BD0000F4
:1018400038380240000C02400018024000100240EC
:1018500000F01F02012191404009800000F1E020CA
:10186000C0F8001170470000F0B40E4B1B68C3F3C2
:101870000223C3F10704042C00D904241D1D072DE5
:1018800001D2002300E0DB1E012606FA04F56D1EDE
:101890000D409D409E40761E164045EA0601F0BC74
:1018A00002F075B80CED00E0064A00F00701106880
:1018B0004FF6FF03184040EA012003490843106037
:1018C000704700000CED00E00000FA052DE9F84338
:1018D0001D48016841F0805101600068012700F057
:1018E00080500090380490FAA0F0DFF86080B0FAE1
:1018F00080F048F82070FFF7E5FE04464FF47A7553
:10190000134E04E0FFF7DEFE001BA84213D87068F8
:10191000C003F7D54FF4003090FAA0F0B0FA80F091
:1019200048F82070FFF7CEFE044607E0FFF7CAFE36
:10193000001BA84202D90320BDE8F8837068800329
:10194000F4D50020F8E700004038024000000E42C5
:10195000007000402DE9F05FDFF8F8A104460F4663
:10196000DAF80000DFF8F08100F00F02C8B27A491F
:10197000814641F2883608F10808BA4261D202462F
:101980008AF80020DAF8000000F00F00B8427DD19C
:101990002078800707D5D8F80020A36822F0F0024D
:1019A0001A43C8F800202078C0072DD060680128AD
:1019B0001AD002281BD0032819D0096889070029EA
:1019C00064DAD8F80010474621F003010143C8F853
:1019D0000010FFF777FE0546606801280FD0022847
:1019E00018D003281CD027E009688903E7E70968B5
:1019F0008901E4E7FFF766FE401BB04258D838681B
:101A0000C0F381000128F5D188E0FFF75BFE401BA1
:101A1000B0424DD83868C0F381000228F5D17DE08E
:101A20003868FFF74FFE401BB042F9D940E0FFF79E
:101A300049FE401BB0423BD8386810F00C0FF6D17D
:101A40006CE02078800707D5D8F80020A36822F042
:101A5000F0021A43C8F800202078C0074CD0606814
:101A6000012828D0022829D0032827D0096889070F
:101A7000002949DAD8F8002022F003020243C8F80E
:101A80000020FFF71FFE0546606800E03CE00128EB
:101A90001DD0022829D0032838D0B34646463068E6
:101AA00010F00C0F28D0FFF70DFE411B5945F6D959
:101AB0000320BDE8F09F09688903D9E70968890117
:101AC000D6E7FFF7FFFD411B594502D9F0E7B346C2
:101AD00046463068C0F381000128F2D10CE0FFF7E0
:101AE000F1FD411B594502D9E2E7B346464630684D
:101AF000C0F381000228F2D18AF80090DAF80000E1
:101B000000F00F00B84209D00120D2E74446206817
:101B1000FFF7D8FD401BB042F9D9C9E7207840074C
:101B200007D5D8F80010E26821F4E0511143C8F855
:101B300000102078000708D5D8F80010226921F499
:101B4000604141EAC201C8F800100F20FFF7E2FD32
:101B50000020AEE7003C02400038024010B500F023
:101B600043F808490968F02292FAA2F201F0F00164
:101B7000B2FA82F2D140044A515CC840034908607D
:101B800010BD000008380240206E0008040000204C
:101B900010B5FFF7E3FF074909684FF4E05292FAE6
:101BA000A2F201F4E051B2FA82F2D140024A515C51
:101BB000C84010BD08380240206E000810B5FFF77D
:101BC000CDFF074909684FF4604292FAA2F201F48E
:101BD0006041B2FA82F2D140024A515CC84010BD65
:101BE00008380240206E000830B51948006810F02F
:101BF0000C01184812D0184C04290ED008290DD118
:101C0000134A121F1168136801F03F015D0247F685
:101C1000C07304D5B4FBF1F003E0204630BDB0FB47
:101C2000F1F01168194093FAA3F3B3FA83F3D940A2
:101C3000484311684FF4403292FAA2F201F4403165
:101C4000B2FA82F2D140491C4900B0FBF1F030BD3C
:101C5000083802400024F40040787D012DE9F84F57
:101C600004460078DFF8FCA2BF4DC0074FF0000625
:101C700048D0DAF800105046C1F38101012908D09C
:101C80000068C0F3810002280AD1281D00684002C4
:101C900006D52868800335D56068002873D031E008
:101CA000DFF8C49209F1020989F80060FFF70AFD24
:101CB000074641F2883804E0FFF704FDC11B4145A7
:101CC0007AD828688003F7D4207989F80000606802
:101CD00060B1FFF7F7FC074604E0FFF7F3FCC11B18
:101CE0004145EDD828688003F7D50BE0FFF7EAFC03
:101CF000074604E0FFF7E6FCC11B4145E0D8286831
:101D00008003F7D42078DFF86492800744D5DAF8AE
:101D10000010504611F00C0F4FF0F80809D0006881
:101D2000C0F3810002280BD18E48001F00684002DA
:101D300006D42868800714D5E068012823D110E074
:101D4000E068D0B10120C9F80000FFF7BBFC0746EE
:101D500004E0FFF7B7FCC01B6428B1D828688007EF
:101D6000F7D5286898FAA8F22169B2FA82F220F031
:101D7000F8009140084328600EE0C9F80060FFF7C2
:101D8000A1FC074605E0EAE0FFF79CFCC01B6428C5
:101D900012D828688007F7D42078000725D5DFF807
:101DA000C4817348616908F16C0881B10121016047
:101DB000FFF788FC074605E07EE0FFF783FCC01BC9
:101DC000642879D8D8F800008007F6D50DE00660C1
:101DD000FFF778FC074604E0FFF774FCC01B64289B
:101DE0006AD8D8F800008007F6D42078400753D589
:101DF0005C483830016841F0805101600068DFF8CC
:101E0000748100F080500090D8F8001041F4807187
:101E1000C8F80010FFF756FC074604E0FFF752FC35
:101E2000C01B642848D8D8F80000C005F6D5DFF8F4
:101E300034B10BF1680B8BF80060FFF743FC0746E9
:101E400041F2883804E0FFF73DFCC11B41457ED8D4
:101E5000DBF800008007F6D4207A8BF80000A06839
:101E600068B1FFF72FFC074604E0FFF72BFCC11B0E
:101E700041456CD8DBF800008007F6D50CE0FFF791
:101E800021FC074604E0FFF71DFCC11B41455ED85D
:101E9000DBF800008007F6D4A069E8B3DAF8001098
:101EA000C1F3810102295AD0022806D0C9F8606026
:101EB000FFF708FC04464DE049E04F46C9F8606072
:101EC000FFF700FC064604E0FFF7FCFB801B6428DC
:101ED0003DD828688001F7D4D4E90701084347F6C4
:101EE000C07191FAA1F1626AB1FA81F18A40A16AE6
:101EF0004FF0FF3303EB51014FF4403393FAA3F358
:101F0000B3FA83F399400A4310434FF0706292FA98
:101F1000A2F2B2FA82F200E01FE0E16A91400843C7
:101F20001049091F086001203866FFF7CBFB044603
:101F300004E0FFF7C7FB001B642808D8286880016D
:101F4000F7D50AE0FFF7BEFB001B642802D9032087
:101F5000BDE8F88F28688001F4D40020F8E701205C
:101F6000F6E700000838024000380240000047420F
:101F7000800E47420070004070B50D46040003D04B
:101F800094F82C0010B107E0012070BD002084F807
:101F90002D00204600F012F8022084F82C00211DAC
:101FA0002068FEF79FFDD4E900022946FEF7EAFD0E
:101FB000012084F82C00002070BD0000304800B5DE
:101FC000016887B041F001010160006800F0010084
:101FD00005902B480838016841F004010160016850
:101FE00001F004010591016841F0080101600168F8
:101FF00001F008010591016841F0100101600168DC
:1020000001F010010591016841F0200101600168B3
:1020100001F020010591016841F040010160006874
:10202000694600F0400005900D20009002200190CC
:1020300001200290032003900C2004901148FFF728
:102040004DFA4CF20370009069460F48FFF746FACC
:102050004FF68370009069460C48FFF73FFA4FF641
:102060003F00009069460A48FFF738FA48F23710F7
:10207000009069460748FFF731FA07B000BD00003D
:102080003838024000080240000C024000100240B4
:10209000001402400018024010B5044690F82C00CD
:1020A000022809D0022084F82C002068FEF740FDA9
:1020B000012084F82C00002010BD70B5044690F873
:1020C0002C000D4602280CD0022084F82C00206839
:1020D000FEF734FD2868022804D0012084F82C0083
:1020E000002070BD0520F9E72DE9F04790F8202089
:1020F00081F85620828CA1F85420826A0023120EA7
:1021000094090C70C2F383044C7002F003028A70CD
:10211000826A120CCA70028D120A0A7190F8282085
:102120004A71C26A4FF6FF7A120E0AEA0212CA8098
:10213000C26ACC88C2F3074244EA1214CC8002F08F
:102140000F020A72828DC2F30722D4094C72C2F3C5
:1021500080148C72C2F34014CC72C2F300140C735E
:1021600000264E73046A4FF00109002C7DD0012C2B
:10217000FCD0022C7AD02923C2F380144C7692062C
:10218000520E01F81A2F10F8302F0C7844EAD214AE
:1021900001F8014B02F07F0201F8012B50F8042FE7
:1021A000120ED4090C70C2F341144C70C2F38204B5
:1021B0008C709207120FCA7004C8CC78C2F3074221
:1021C00044EA9214CC70C2F340140C714E7102F0C8
:1021D00001028A7130F8042CC2F30722D409CC71B1
:1021E000C2F380140C72C2F340144C72C2F3001498
:1021F0008C72C2F38104CC7202F003020A7310F8ED
:10220000042C52084A734C4681F80E9050F8082B63
:10221000120E0A7450F8082C120C0AEA02224A82A2
:1022200030F8082C4D8AC2F3072215434D8210F86E
:10223000082C120641F8142F50F8042C0D68120EC9
:1022400045EA02420A6050F8042C0D68C2F30742C6
:1022500045EA02220A6030F8042C0D68C2F3072216
:10226000154320C110F8042C01E034E076E001F8B9
:10227000012B0268120E01F8032B0268120C1206E1
:102280000A6002880D68C2F3072245EA02420A602A
:1022900002780D6845EA02220A6042680D6845EA44
:1022A000126520C142680D78C2F3074245EA121553
:1022B00001F8025B1207120D0A8082880D88C2F3B2
:1022C0000722154321F8025B0079400808704C7022
:1022D0001846BDE8F0879207120D0A6190F82C208D
:1022E0000C6944EA82020A61026B0C69120E44EA2C
:1022F00092140C61C2F3C2040C7502F007024A7515
:10230000026BC2F3074254098C75C2F38204CC7588
:102310009207520F0A76028E0C7EC2F3072244EA1D
:10232000D2140C760C690F7EBF1C09FA07F5641CE9
:10233000A4FB05784FEAE57C06FB058504FB0C55FC
:1023400091F808C009FA0CF4A7FB04C80C6505FB5A
:10235000048407FB0644C1E912C40DE790F82C2061
:102360009206920A0A61026B0C69120E44EA02227A
:102370000A61026B0C69C2F3074214430C61028EBE
:102380000C69C2F30722641C46F10005ED0445EA1E
:102390005435E404C1E912454FF400740C65EBE6D2
:1023A00070B586B000250E4604468DF80C500577B2
:1023B00000F046F876200095CDE901502B462A46DC
:1023C0002946206801F016FB204601F04DFE8DF8ED
:1023D0000C009DF80C0038B9204601F039FD8DF84D
:1023E0000C009DF80C0018B19DF80C0006B070BDF3
:1023F00031462046FFF778FE8DF80C009DF80C0062
:10240000A0B9B6F854006946000400900720019076
:102410004020CDE9020500010490206801F003FB93
:102420000721204601F086FB8DF80C0004F1100016
:1024300007C88DE8070094E80F0001F0DBFAD3E746
:102440001D4800B5016887B041F400610160006873
:1024500000F40060059018481438016841F48001C8
:102460000160016801F480010591016841F00401F7
:102470000160016801F004010591016841F0080163
:1024800001600068694600F0080005904FF4F850BC
:1024900000900220019001200290032003900C2064
:1024A00004900648FFF71AF8042000906946044893
:1024B000FFF714F807B000BD44380240000802409E
:1024C000000C02402DE9F04F8BB004460D46DDE9CB
:1024D0001478216800201646C862216A022903D1B7
:1024E0000F02560A46EAC3561021CDE90071402179
:1024F000834608010291CDE903B06946206801F0E6
:1025000092FA1021204601F015FB00286DD14FF002
:10251000FF3A08FB07F0CDE905A007A990204FF08E
:10252000020981E8010A01200A9005A9206801F04A
:102530003FFAB8F1010F01D9122000E01120CDE9D6
:1025400000606946206801F06EFAB8F1010F1AD9EF
:102550001221204601F0EEFA070046D140F22A3B54
:102560002068416B11EA0B0F28D1406B0004F7D5AE
:102570000026206801F054FA45F82600761C082E43
:10258000F7D32035ECE71121204601F0D3FA0700FC
:102590002BD140F22A6B2068416B11EA0B0F0DD151
:1025A000406B0004F7D50026206801F039FA45F8A1
:1025B0002600761C082EF7D32035ECE7406BC005CB
:1025C0000CD5B8F1010F09D9206A18B1012801D042
:1025D000022803D1204600F033F807462168486BF3
:1025E000000705D50820886304200BB0BDE8F08FF4
:1025F000486B800703D54846C1F83890F5E7486B2B
:10260000800603D5202088630620EEE7486B80050E
:1026100004D54FF4007088630720E6E7564603E0D0
:1026200001F0FEF901C5761E2068416B890201D5D3
:10263000002EF5D1216840F2FF5088633846D4E778
:1026400010B586B0044600200C21CDE900014021E0
:10265000CDE90210080104906946206801F0E3F911
:102660000C21204601F066FA06B010BDFEB5044606
:10267000006A00250E46032805D030B1012804D099
:10268000022802D01FE02720FEBDB6F5805F05D0EE
:10269000B6F5006F04D03EB1262514E0272512E0E0
:1026A000204601F01CFE02E0204601F0DFFD05009F
:1026B00009D1211DD4E905070EC9CDE900600297B3
:1026C000206801F097F92846FEBD2DE9F04F8DB046
:1026D000064600250C468DF82C50DDE91698316829
:1026E00017462846CD62316A4FF4007B022903D198
:1026F000570AD94647EAC3571021CDE90091402136
:10270000824608010291CDE903A06946306801F0D4
:102710008AF91021304601F00DFA00286ED1B8F187
:10272000010F01D9192000E01820CDE90070694699
:10273000306801F078F9B8F1010F01D9192100E0F2
:102740001821304601F0F6F900287FD1411E09FB1F
:1027500008F99020CDE906900591CDF820A0012040
:10276000CDE909A005A9306801F022F9B8F1010FFF
:1027700024D84FE0406B400420D5A9EB0500202869
:1027800011D281074FEA900000D0401C82460027FA
:1027900006E02146306801F056F9241D2D1D7F1CEE
:1027A00057450BD2F5E7002704EB8701306801F0AD
:1027B0004AF97F1C082FF7D3203420353068416B4D
:1027C00040F21A321142D5D02AE0406B400421D5A4
:1027D000A9EB0500202812D281074FEA900000D013
:1027E000401C8246002706E02146306801F02BF9A4
:1027F000241D2D1D7F1C57450CD2F5E726E0002730
:1028000004EB8701306801F01EF97F1C082FF7D315
:10281000203420353068416B40F21A621142D4D026
:10282000406BC0050BD5B8F1010F08D9306A18B15B
:10283000012801D0022802D13046FFF701FF31689C
:10284000486B000705D50820886304200DB0BDE85B
:10285000F08F486B800702D502208863F6E7486B4B
:10286000C00603D5102088630520EFE7486B80057C
:1028700003D5C1F838B00720E8E740F2FF5088637D
:102880000BA9304601F052FB0028DFD19DF82C1037
:102890000729F5D00629F3D0D8E770B5040004D095
:1028A00094F85100002510B106E0012070BD84F8B5
:1028B0005050204600F034F8022084F8510020687F
:1028C000016821F040010160D4E901010843D4E925
:1028D00003121143084361690843218B01F400711D
:1028E0000843E1690843216A0843A16A0843216853
:1028F0000860A069042101EA1040616A0843216868
:1029000048602168E06A08612068C16921F40061BB
:10291000C1616565012084F85100002070BD000090
:10292000114800B5016887B041F0020101600068FC
:1029300000F0020005900C481430016841F4805109
:1029400001600068012100F480500590382000905B
:102950000220CDE901010390052004906946034857
:10296000FEF7BCFD07B000BD303802400004024055
:102970002DE9F843044690F85100DDF82080012845
:1029800001D022287ED169B162B15BB194F85000C8
:10299000012877D0012784F8507094F8510001285D
:1029A00003D005E00120BDE8F883322084F851000F
:1029B00000266665A263A387E3872163A386E38677
:1029C000A664E664A06A4FF40055A84209D12068C5
:1029D000016821F4005101602068016841F4005150
:1029E000016020680168490603D4016841F0400194
:1029F0000160E0684FF48271B0F5006F606807D045
:102A0000002867D088426ED1E08E012862D06AE04B
:102A100020B188420CD1E08E012809D1206B2168B9
:102A20000088C860206B801C2063E08E401EE0861A
:102A3000E08E80B9A06AA84244D12068016841F4C0
:102A4000805101603EE02068C068A16B0880A06BE7
:102A5000801CA0639EE0434600220221204601F034
:102A600019FD002874D1206B21680088C860206B94
:102A7000801C2063E08E401E0004000CE08609D11B
:102A8000A06A00E0C7E0A84204D12068016841F4D0
:102A900080510160434600220121204601F0FAFCEA
:102AA00000286FD12068C068A16B0880A06B801CD3
:102AB000A063E08F401EE087E08E0028CBD16068E5
:102AC00000286AD1434600220121204601F0E2FCA1
:102AD000F0BBB8E7206B411C216321680078C86017
:102AE000E08E401EE086E08E98B9A06AA84204D12C
:102AF0002068016841F480510160434600220121B1
:102B0000204601F0C7FC18BB2068C068A16B0870A4
:102B100040E0434600220221204601F0BBFCB8B948
:102B2000206B411C216321680078C860E08E401E44
:102B30000004000CE08607D1A06AA84204D12068F6
:102B4000016841F48051016000224346012100E008
:102B500018E0204601F09EFCA0B92068C168A06B77
:102B6000421CA2630170E08F401EE087E08E0028C7
:102B7000CFD1606888B9434600220121204601F088
:102B800089FC08B103200EE72068C168A06B421CD5
:102B9000A2630170E08F401EE087A06AA84210D1B6
:102BA000434600220121204601F074FC18B1606DFB
:102BB00040F002000FE02068C068ADF80000BDF8EA
:102BC0000000434601228021204601F063FC20B131
:102BD000606D40F020006065D4E784F85170206893
:102BE0008168A26AC1F30011AA4210D179B1616D66
:102BF00041F002016165016821F400510160206823
:102C0000016841F40051016084F85060CAE684F81C
:102C100050600020C7E60220C5E64FF0E0210428FE
:102C2000086903D020F004000861704740F00400F8
:102C3000FAE710B5401EB0F1807F01D3012010BD2E
:102C40004FF0E02460610F21601700F0A0FE00202B
:102C5000A06107202061002010BD704738B50168D1
:102C600004460868CA68C0F3000002F4807238B1F4
:102C700032B1086848680090E06B40F00100E06302
:102C800008684A69C0F3400002F0010238B132B16D
:102C9000086848680090E06B40F00400E063086852
:102CA0004A69C0F3800002F0010238B132B108680D
:102CB00048680090E06B40F00200E06308684A69F1
:102CC000C0F3C00002F0010238B132B108684868B0
:102CD0000090E06B40F00800E0630868C968C0F34A
:102CE000401001F0200118B111B1204601F080FD23
:102CF00020680168C068C1F3C01100F0800019B1FC
:102D000010B1204601F082FE21680868CA68C0F34D
:102D1000801002F04002012568B162B1CA68204605
:102D200022F04002CA6094F8391032290CD080F8A1
:102D3000395000F0EDF8E06B002804D084F83950E9
:102D40002046FFF78AFF38BD222180F83910F0E7CE
:102D500070B5040004D094F83900002510B106E0E5
:102D6000012070BD84F83850204600F021F8022080
:102D700084F839002068C16821F40051C160204600
:102D800001F08AFD2068016921F490410161206809
:102D9000416921F02A0141612068C16841F4005174
:102DA000C160E563012084F83900002070BD000097
:102DB00030B504460068204987B0884239D11F48A1
:102DC000016841F001010160006800F00100059018
:102DD0001A481430016841F01001016000680121B7
:102DE00000F0100005904FF4007000900220CDE933
:102DF000010103900720124D049069462846FEF712
:102E00006DFB2815009069462846FEF767FB206891
:102E1000C16821F04001C1602068C16841F0200113
:102E2000C1602520FEF714FD032211462520FEF780
:102E30001BFD07B030BD00000010014030380240DB
:102E4000000002402DE9F047044690F83900994609
:102E50000D46012801D0122857D125B31AB394F892
:102E60003800012851D0012684F838600027E76334
:102E700094F83900122819D0222084F83900A2854C
:102E8000E2854FF48058E08D4B46401EE085A068F7
:102E90004FF0000240454FF02001204616D101F0CE
:102EA000E8FDB0B904E00120BDE8F0873220E4E796
:102EB000206900282068406803D0C1B225F8011BB2
:102EC00012E0C0F3080125F8021B0DE001F0D1FD6E
:102ED00008B10320E8E7206900282068406801D095
:102EE00000F07F0005F8010BE08D0028CBD194F8AD
:102EF0003900322805D084F8396084F83870002011
:102F0000D2E7122084F83900F7E70220CCE77047B7
:102F10007047FEE770B51B4886B00025016841F098
:102F200001010160016801F001010591016841F0B2
:102F300004010160016801F004010591016841F09C
:102F4000800101600068032400F0800005900220E9
:102F50000126CDE90204CDE9006569460A48FEF77D
:102F6000BDFA700303948DE8610069460748FEF7D7
:102F7000B5FA0C20009069460548FEF7AFFA06B096
:102F800070BD0000303802400000024000080240DE
:102F9000001C024030B50F4887B0016841F00801BD
:102FA000016000684FF4805400F008000590012093
:102FB000CDE9004002900320074D03906946284662
:102FC000FEF78CFA002221462846FEF775FB07B073
:102FD00030BD000030380240000C0240FEE7000027
:102FE0002DE9F84F1C4600230A9E17460D46ADF802
:102FF000003062498979B0FBF1F2B5FBF1F1D207FB
:10300000B2EBC17F7DD1DFF87891984689F80080D6
:10301000DFF870B18BF800808BF800808BF800002F
:10302000020A8BF80020000C8BF80000352089F88C
:103030000000002000F0AAFB20B9012000F0A6FB50
:10304000010002D00220BDE8F88F852289F8002017
:103050008BF800703A0A8BF800208BF800502A0A8F
:103060008BF800202A0C8BF800201E2000F0CEF8F0
:10307000F0054FF000450ED0404605E014F8010B76
:103080002870BDF80000401CADF80000BDF800003D
:10309000B042F3D364E0760A7A0A4FF02043C24686
:1030A0004FF4007C354F27E0D3F8800040F040001B
:1030B000C3F88000504605E014F8010B2870BDF8F5
:1030C0000000401CADF80000BDF800006045F3D3DF
:1030D000D3F884004006FBD5D3F8940001EB020836
:1030E00007EB8808C8F81C00D3F8800020F04000E7
:1030F000C3F88000491CC9B2B142D5D379881020E9
:1031000000E037E000EB82000844ADF800001E202C
:1031100000F07CF8852189F80010BDF800008BF8DC
:103120000000BDF80000000A8BF800001E2000F02F
:103130006DF807EB8201ADF800A01C310CE0002017
:1031400011F8012B2A70401CC0B20428F8D3BDF836
:103150000000401CADF80000BDF80000B042EED306
:10316000102089F80000C82002F006F800F0FCFAF0
:10317000402801D0012066E7002064E7981700206E
:1031800000000180000002802DE9F0410C461C493E
:103190008979B0FBF1F2B4FBF1F1D207B2EBC17F58
:1031A00029D1184F00263E70174D2E702E702870B2
:1031B000010A2970000C287035203870304600F064
:1031C000E5FA18B9012000F0E1FA10B10220BDE8DB
:1031D000F081852038702E702E702C70200A287097
:1031E000200C287010203870C82001F0C5FF00F0B6
:1031F000BBFA402801D00120E9E70020E7E7000002
:1032000098170020000001800000028001B500989E
:1032100001E0401E00900028FBD108BD2DE9F041DF
:10322000054690460E46012000F042F8044631461D
:10323000002000F03DF807464146012000F038F834
:1032400006464146002000F033F884EA0702724047
:103250004240A2F57060FF3805D00AA0FDF72AF8B9
:103260000120BDE8F081744021460DA0FDF722F851
:10327000E10804F00703685C01229A40504068545A
:103280000020EEE732626974206563632065727224
:103290006F72206F72206D6F72650D0A0000000062
:1032A0006572726F72706F733A25640D0A000000C8
:1032B00070B5054600200C460246012602F00101C9
:1032C000A94208D124FA02F1C90704D0510806FA2C
:1032D00001F3184480B2521CD2B2182AEED370BD4A
:1032E000104910B50969104A914201D1C00103E0AB
:1032F0000E4A914200D180010D4A602111700D49A2
:103300000870030A0B70000C0870D02010700420A5
:1033100001F024FF00F028FA402801D0012010BD60
:10332000002010BD9817002089260048569590DC93
:10333000000001800000028010B5274888B02549B0
:1033400001604FF480714160002181604FF4C02220
:10335000C160C0E9041281610121C1610220032220
:10336000CDE90402CDE90601CDE90002CDE9020173
:103370006A4604A91848FEF7E2F900F0E7F964206C
:1033800001F0ECFE00F048F8134C383420610420C2
:1033900000F028F8114B4FF48052206951109842E8
:1033A00007D14FF4875020806280E020A0808020E9
:1033B00008E00B4B98420BD14FF4046020806180F1
:1033C0004020A080A07121816281002008B010BD42
:1033D0000120FBE7600000A060170020892600485C
:1033E000569590DC0A4A00B5EF211170094A012177
:1033F0001170C9070870002008700870087000F08C
:10340000B3F9402801D0012000BD002000BD00001C
:1034100000000180000002800CB50F499020087068
:103420000E4900200870880301788DF8001001789B
:103430008DF8011001788DF8021001788DF80310D5
:1034400000788DF80400DDF801009DF8041000BA42
:1034500020F0FF0008430CBD000001800000028046
:103460002DE9F84F4FF000081C4615468246894664
:10347000ADF80080744A474682F8008073480170B6
:10348000090A017080F800A04FEA1A2101704FEA82
:103490001A41017030201070002000F077F918B93F
:1034A000012000F073F910B10220BDE8F88FE205A9
:1034B0004FF000410ED0404605E0087805F8010BBA
:1034C000BDF80000401CADF80000BDF80000A042AF
:1034D000F3D3B2E0660A4FEA5924AB464FF02042DC
:1034E000DFF86CE14FF4007C2AE0D2F8801041F064
:1034F0004001C2F880100021ADF800104FF00043E9
:1035000007E0197805F8011BBDF80010491CADF85B
:103510000010BDF800106145F3D3D2F884104906BD
:10352000FBD5D2F8943000EB04080EEB8801CB6198
:10353000D2F8801021F04001C2F88010401CC0B2C7
:10354000B042D2D3BEF80200102101EB840108443E
:103550007546ADF800002320FFF758FE3A480521D4
:103560000170BDF8002039490A70BDF80020120A28
:103570000A70E02101701920FFF748FE002205EBD8
:103580008400ADF800204FF000433C3007E019788C
:1035900000F8011BBDF80010491CADF80010BDF883
:1035A0000010B1EB860FF2D3ADF8002041E0BDF87A
:1035B0000000BDF80010204405EB8000C06B2144E2
:1035C00005EB8101C96988422ED0BDF80000204476
:1035D00005EB8000C26BBDF80000204405EB8000C5
:1035E000C1691CA0FCF766FE224631461FA0FCF70D
:1035F00061FE4A46514623A0FCF75CFEBDF8000080
:10360000204405EB8000C269BDF80000BDF8003021
:10361000204405EB8000C16B0BEB4320FFF7FEFD60
:1036200008B1042700E00327BDF80000401CADF8F6
:103630000000BDF80000B042B9D300F095F8402872
:1036400000D00127384630E70000018000000280EA
:10365000981700206572722068642C72643A307882
:1036600025782C307825780D0A0000006563636E9C
:10367000756D2C65636373746172743A25642C25CF
:10368000640D0A00506167654E756D2C436F6C4E7A
:10369000756D3A25642C25640D0A0000F0B51D46B1
:1036A000164B0024059F16461C70154A1170090A16
:1036B00011701070010A1170000C10703020187019
:1036C000204600F063F818B9012000F05FF808B157
:1036D0000220F0BD4FF0004004E00168B14203D188
:1036E000641CA4B2AC42F8D33C8000F03DF8402802
:1036F00001D00120F0BD0020F0BD000000000180DD
:103700000000028030B4064D2C79641AE4B2A34262
:1037100000D923466C88214430BC89B2FFF7A0BE93
:103720009817002008B500208DF800000649702089
:1037300008701920FFF76AFD4FF0004000788DF8FF
:1037400000009DF8000008BD00000180054900B59B
:10375000FF20087000F008F8402801D0012000BDCB
:10376000002000BD0000018008B500206FF060421D
:103770000090FFF7D7FF400606D40098401C009049
:103780009042F6D3022008BD402008BD01B581B0AB
:103790000020009009486FF07E41009A521C009270
:1037A000D0F818229DF804309A4201D100200CBDB7
:1037B000009A8A42F1D301200CBD000000804142F2
:1037C0002DE9F84F4FF000081D46ADF80080DFF8F6
:1037D0003CA1802644468AF80060DFF834B18BF8BB
:1037E00000100E0A8BF800608BF80000060A8BF8B8
:1037F0000060000C8BF800001E20FFF707FDE805B5
:103800004FF000460FD0ADF8008007E012F8010B32
:103810003070BDF80000401CADF80000BDF800009D
:10382000A842F3D362E06D0A490A4FF02043394FB2
:10383000C1464FF4007C27E0D3F8800040F0400000
:10384000C3F88000484605E012F8010B3070BDF85F
:103850000000401CADF80000BDF800006045F3D347
:10386000D3F884004006FBD5D3F8940004EB01089C
:1038700007EB8808C8F81C00D3F8800020F040004F
:10388000C3F88000641CE4B2AC42D5D37A8810201F
:1038900000EB81001044ADF800001E20FFF7B6FCDD
:1038A00085228AF80020BDF800208BF80020BDF8A2
:1038B0000020120A8BF800201E20FFF7A7FC07EB60
:1038C0008101ADF800901C310CE0002011F8012BB3
:1038D0003270401CC0B20428F8D3BDF80000401C70
:1038E000ADF80000BDF80000A842EED310208AF821
:1038F0000000C82001F040FCFFF736FF402802D04E
:103900000120BDE8F88F0020FBE7000000000180E7
:10391000000002809817002070B5124E1D4600244A
:1039200080233370104B1970090A19701870010A3E
:103930001970000C18701E20FFF768FCF00302E0FD
:103940000260641CA4B2AC42FAD310203070C820CC
:1039500001F012FCFFF708FF402801D0012070BDE4
:10396000002070BD000001800000028030B4064DD0
:103970002C79641AE4B2A34200D923466C8821440E
:1039800030BC89B2FFF71CBF9817002070470907A9
:10399000090E002806DA00F00F0000F1E02080F8A0
:1039A000141D704700F1E02080F800147047704744
:1039B0000A6842624A688262D1E902231A43D1E965
:1039C00004310B43C16A1A4321F0F7011143C1626C
:1039D000002070470069C0B27047006800F0030023
:1039E0007047000008B5024908440090006808BD0F
:1039F000142C014070B50DF1100C11439CE87000BF
:103A00002343194329434268314347F6FF639A43EE
:103A10000A434260002070BD03210160002070470E
:103A2000D0F8800070470A688260D1E901231A4308
:103A3000D1E903310B43C1681A436FF30B01114302
:103A4000C160002070470968C0F8801000207047EE
:103A500000B5164887B014490022C0E900120121C0
:103A6000816008211023C0E90313402343614FF410
:103A7000C073C0E906320A0202624A0242628A0246
:103A800082620220CDE9000106210291CDE90310F6
:103A90000590069069460548FEF76EFA034800F067
:103AA00007F807B000BD0000400100A0C0030020DF
:103AB00010B5002301221146184600F021F84FF4FA
:103AC000FA7001F059FB002301220221184600F090
:103AD00017F8002308220321184600F011F84FF4CC
:103AE0000C7301220421002000F00AF8BDE8104008
:103AF00040F2AB210148FEF7CFBA0000C00300201E
:103B00001FB5002410B1012802D002E0102400E00B
:103B10000824CDE90014CDE902234FF48052694610
:103B20000348FEF7CAFA002800D0012004B010BDF7
:103B3000C003002070B5044600680E460025416BA6
:103B400011F0450FFBD0416B490703D50321042237
:103B5000826304E0416BC90703D0012181630846F9
:103B600070BDFFF737FFB0422BD1216840F2FF5004
:103B700088630020FFF736FF284908424BD0002811
:103B800001DA1C2070BD410001D5092070BD810003
:103B900001D50A2070BDC10001D50B2070BD010107
:103BA00001D50C2070BD410101D50D2070BDC101B2
:103BB00001D50E2070BD010201D50F2070BD41025C
:103BC00001D5102070BD810201D5112070BDC10248
:103BD00001D5122070BD010301D5132070BD410332
:103BE00001D5142070BD810301D5152070BDC1031E
:103BF00001D5162070BD010401D5172070BD410408
:103C000001D5182070BD810401D5192070BD0007B1
:103C100001D51A2070BD284670BD000008E0FFFDE8
:103C20000146002009684A6B12F0450FFBD04A6B31
:103C3000520702D50320042207E04A6BD20702D0C4
:103C400001208863704740F2FF528A6370472DE974
:103C5000F0410446006815460E460027416B11F0FE
:103C6000450FFBD0416B490703D503210422826332
:103C700004E0416BC90704D0012181630846BDE817
:103C8000F081FFF7A7FEB04212D1216840F2FF5049
:103C900088630020FFF7A6FE10F4604F03D0810474
:103CA00004D51320EBE7000C288007E0410401D580
:103CB0001020E4E7000401D50F20E0E73846DEE7F6
:103CC0000246292012684FF48031536B13F04503EC
:103CD00007D0012305E0536B13F0450300D0012307
:103CE000491E0BB90029F6D1536BC3F3800301B110
:103CF00013B10320042104E0516B490602D50020D2
:103D00004021916370472DE9F04F8DB000250F469B
:103D10000B9508261021CDE9006140210C95044641
:103D2000CDE9021508010490A84669462068FFF70E
:103D30007AFE10212046FFF7FDFE002844D1A08C1A
:103D4000694600040090372001902068FFF76BFE61
:103D500037212046FFF7EEFE002835D1401ECDE981
:103D6000050630204FF00209CDE907090120CDE911
:103D70000980B246464605A92068FFF719FE3320A0
:103D8000CDE9006069462068FFF74DFE33212046EB
:103D9000FFF7D0FE060017D10DF12C0840F22A6B78
:103DA0002068416B11EA0B0F08D1416B8902F7D5EE
:103DB000FFF736FE48F825006D1CF1E7416B090757
:103DC00005D5C0F838A004200DB0BDE8F08F416BD8
:103DD000890703D5C0F838904846F5E7416B890656
:103DE00003D5202181630620EEE7416B890504D5C8
:103DF0004FF4007181630720E6E740F2FF518163D1
:103E00000B9800BA78600C9800BA38603046DBE74F
:103E10000E4810B50C490160002141608160C1600D
:103E200001614161816100F16001FEF7B9FA08B1F9
:103E3000012010BD4FF400610448FEF717FC002874
:103E4000F7D0022010BD0000002C0140F803002034
:103E500070B586B004460120ADF814000025206836
:103E6000FFF7BBFD58B3206A04285DD00020022173
:103E7000C0268DE8430003904802049069462068FC
:103E8000FFF7D1FD2046FFF7CBFE050018D1FFF765
:103E9000A9FDA0630420FFF7A5FDE0630820FFF75C
:103EA000A1FD20640C20FFF79DFD6064206A48B1ED
:103EB000012807D0062805D0022803D011E02520CC
:103EC00006B070BD03200190402002906946206832
:103ED000FFF7A9FD05AA03212046FFF7B8FE05005C
:103EE000EED1206A04281FD0BDF8140060620004DF
:103EF00000900920CDE9010669462068FFF793FD8F
:103F00002046FFF78DFE0500DAD1FFF76BFDA062BA
:103F10000420FFF767FDE0620820FFF763FD2063E0
:103F20000C20FFF75FFD60632846C9E770B586B0D7
:103F3000044600260D460096A18C090401910D212E
:103F400002914021CDE903160801059001A92068DE
:103F5000FFF769FD2068416B11F0450FFBD0416B05
:103F6000490703D503210422826304E0416BC9079A
:103F700004D001218163084606B070BDFFF72AFD19
:103F80000D2838D1216840F2FF5088630020FFF7E8
:103F900029FD0090C0F34320287032490098084260
:103FA0005DD00098002801DA1C20E5E7400001D52B
:103FB0000920E1E70098800001D50A20DCE700989D
:103FC000C00001D50B20D7E70098000101D50C20D7
:103FD000D2E70098400101D50D20CDE70098C0013F
:103FE00001D50E20C8E70098000201D50F20C3E7D5
:103FF0000098400201D51020BEE70098800201D54C
:104000001120B9E70098C00201D51220B4E700984A
:10401000000301D51320AFE70098400301D5142019
:10402000AAE70098800301D51520A5E70098C003F2
:1040300001D51620A0E70098000401D517209BE7C2
:104040000098400401D5182096E70098800401D517
:10405000192091E70098000701D51A208CE7304617
:104060008AE7000008E0FFFD2DE9F04F87B04FF030
:10407000000904468DF81490DFF870A14F464D46B4
:104080004E46C846CAF8A0900068FFF7C5FC01205C
:10409000FDF76EF94FF0010BCAF8A0B0CDE9009919
:1040A000CDF808904FF48060CDE903906946206810
:1040B000FFF7B9FC226800234FF48030516BC1F345
:1040C000C01104E0516B401EC1F3C0110CD0002997
:1040D000F8D048B140F2FF5090638DF814309DF84D
:1040E000140000287DD101E00323F6E74FF4D570DA
:1040F000009008204FF04009CDE901096946206889
:10410000FFF791FC2046FFF7DBFD8DF814009DF8CA
:10411000140018B94FF08048C4F820B04FF0000ADE
:104120003720CDE900A069462068FFF77CFC3721E5
:104130002046FFF7FFFC8DF814009DF814004FF6A1
:10414000FF7180B34DE03720CDE900A0CDF8089095
:104150004FF48067CDE903A7564669462068FFF70C
:1041600062FC37212046FFF7E5FC8DF814009DF82E
:10417000140088BB1E4948EA010000902920CDE9BF
:104180000109CDE9036769462068FFF74CFC206808
:104190000021426B12F0450FFBD0426B520703D552
:1041A0000321042202E00EE040F2FF5282638DF808
:1041B00014109DF8140078B90020FFF713FCC60F07
:1041C00007466D1C00E08B460EB95D45BBD35D45CF
:1041D00003D31B208DF8140003E0780001D50220E2
:1041E00020629DF8140007B0BDE8F08F00802542E2
:1041F000000010802DE9FC5F924605464FF0000854
:10420000CE0D4F02FCF72DF8A9074FF400701CD01B
:1042100000244FF0010B814614E06002C2191249DC
:10422000CDE9009B46EBE073A1F1B800FEF74AF937
:1042300080464A460C492846FCF736F9641CE4B22D
:1042400005F500755445E8D309E0CDE9000A0648B4
:104250003A4633462946B838FEF734F98046FCF72B
:1042600002F84046BDE8FC9FB004002030B587B09E
:1042700000250446059528460695FFF7B3FB800107
:1042800002D50E2007B030BD05A92046FFF73BFD43
:104290000028F7D10698C0031FD5A08C69460004FA
:1042A0000090372001904020CDE9020500010490E4
:1042B0002068FFF7B8FB37212046FFF73BFC0028BA
:1042C000E0D10620CDE9005069462068FFF7ABFB3E
:1042D00006212046FFF72EFCD4E72520D2E730B593
:1042E00087B000250446059528460695FFF77AFB1A
:1042F000800102D50E2007B030BD05A92046FFF78A
:1043000002FD0028F7D10698400320D5A08C69460D
:1043100000040090372001904020CDE90205000103
:1043200004902068FFF77FFB37212046FFF702FC4F
:104330000028E0D102200090062001906946206804
:10434000FFF771FB06212046FFF7F4FBD3E725209A
:10435000D1E700002DE9FC5F914605464FF00008CB
:10436000CE0D4F02FBF77DFFA8074FF400711DD063
:1043700000248A464FF0010B15E0D04652462946EC
:104380001248FCF791F86002C2191049CDE9008B80
:1043900046EBE073A1F1B800FEF797F9641C804684
:1043A000E4B205F500754C45E7D309E0CDE9001905
:1043B00006483A4633462946B838FEF786F980461D
:1043C000FBF751FF4046BDE8FC9F0000B004002011
:1043D00010B5124C1048022120604FF482706060CA
:1043E0000020A060C4E90301012161614902A161CB
:1043F0003821C4E907106062A0620720E06220460D
:10440000FEF74BFA2068016841F040010160BDE809
:104410001040FF2000F02EB80030014008070020B7
:1044200001B582B04FF47A700090012301AA02A96D
:104430000248FEF79DFA9DF804000EBD0807002013
:104440000B4A10B511680B6823F040030B6011682C
:104450000B684FF6C77423400B6011680B68034369
:104460000B601068016841F04001016010BD000060
:104470000807002001B582B04FF47A700090012344
:1044800001AA02A90248FEF773FA9DF804000EBDC6
:10449000B00600202DE9F0471D4690460F46044621
:1044A000FDF710F906465FEA08004FF000084FF4E8
:1044B000005A4FF0010926D034E0681C23D025B102
:1044C000FDF700F9801BA8421DD92068416821F042
:1044D000E00141602068016821F040010160A06AAC
:1044E000504509D12068016821F40051016020681D
:1044F000016841F40051016084F8519084F85080C3
:104500000320BDE8F0872068806837EA0000D4D136
:104510000DE0681C06D0002DD7D0FDF7D3F8801B26
:10452000A842D2D82068806837EA0000F1D0002085
:10453000E7E700003A49884201D200207047394934
:10454000884201D2012070473749884201D20220B7
:1045500070473649884201D2032070473449884267
:1045600001D2042070473349884201D205207047A8
:104570003149884201D2062070473049884201D231
:10458000072070472E49884201D2082070472D49E4
:10459000884201D2092070472B49884201D20A2063
:1045A0007047B0F1016F01D20B2070472749884254
:1045B00001D20C2070472649884201D20D20704755
:1045C0002449884201D20E2070472349884201D2F3
:1045D0000F2070472149884201D21020704720499E
:1045E000884201D2112070471E49884201D2122010
:1045F00070471D49884201D2132070471B498842E9
:1046000001D2142070471A49884201D21520704700
:104610001849884201D216207047172070470000C1
:10462000004000080080000800C0000800000108E9
:104630000000020800000408000006080000080846
:1046400000000A0800000C0800000E0800401008D6
:104650000080100800C010080000110800001208B7
:1046600000001408000016080000180800001A08CE
:1046700000001C0800001E082DE9F04F87B04FF025
:10468000000817460E460446CDF81480B0F1006FBE
:1046900038D3A00736D1FCF70DFF1C48254604EBA4
:1046A00087074CF2503B844215D24FF001094FF07E
:1046B000020ABD420FD22868401C11D02846CDF80E
:1046C0000080FFF737FF02AA05A982E801066846C5
:1046D000FCF75AFE28B15846FCF780F970B10FE09C
:1046E0002D1D5846FCF77AF9E3E700232146022006
:1046F0003268FCF7A1FE18B9241D361DBC42F4D364
:10470000FCF790FE07B0BDE8F08F00000000FF1F2F
:104710007047000070B51E4C92B00025266846F028
:1047200080562660246804F080541194194C266841
:1047300046F44046266024680DF1240C04F44044FD
:104740001194012400940194022406948CE80D0035
:104750006605CDE907616846FDF780FA00B1FEE71E
:10476000FDF7B4F800B1FEE70CA90F2081E8310095
:104770004FF4A0500F904FF48050109005210CA8DA
:10478000FDF7E8F8002800D0FEE712B070BD000089
:104790004038024000700040FCF79ABF10480168A2
:1047A00041F4700101600F48016841F001010160AE
:1047B0000C4A00210832116002680B4B1A4002605B
:1047C000031D0A4A1A60026822F48022026005482A
:1047D0000C300160024958068039086070470000BB
:1047E00088ED00E000380240FFFFF6FE10300024A4
:1047F00010B590F83910222903D0322901D00220B7
:1048000010BD8168B1F5805F11D001690029016890
:104810001FD0496801F07F03816A4A1C82620B70D5
:10482000C18D491E0904090CC18518D02FE0026909
:10483000816A002A0268526805D0D2B20A80816A71
:10484000491C8162ECE7C2F308020A80816A891C74
:10485000F7E74A68816A4B1C83620A70E0E70168E7
:10486000CA6822F02002CA6090F83910322910D0AC
:104870000168CA6822F48072CA6001684A6922F03D
:1048800001024A61012180F83910FEF740FB002047
:1048900010BD1221F7E700002DE9F0410446006841
:1048A0000169E26821F440510A4302612068C1684D
:1048B00049F20C6291432369A268E5691A4363696E
:1048C0002B431A430A43C2602068416921F44072B5
:1048D000A16911434161E06964263225B0F5004FBA
:1048E000484A494920681DD0884201D0904269D188
:1048F000FDF764F900EBC00101EB00106168B04600
:104900008900B0FBF1F1B1FBF8F6FDF757F900EBC8
:10491000C00101EB001061688900B0FBF1F7FDF701
:104920004DF968E0884201D0904219D1FDF746F96F
:1049300000EBC00101EB00106168B0464900B0FB1C
:10494000F1F1B1FBF8F6FDF739F900EBC00101EB2D
:10495000001061684900B0FBF1F7FDF72FF918E08E
:10496000FDF716F900EBC00101EB00106168B046DD
:104970004900B0FBF1F1B1FBF8F6FDF709F900EBE6
:10498000C00101EB001061684900B0FBF1F7FDF7D1
:10499000FFF800EBC00101EB001061684900B0FBBB
:1049A000F1F1B1FBF8F06FF01801484307EB80001C
:1049B00005EB0011B1FBF8F0216866F31F10886069
:1049C000BDE8F081FDF7E4F800EBC00101EB001059
:1049D0006168B0468900B0FBF1F1B1FBF8F6FDF774
:1049E000D7F800EBC00101EB001061688900B0FB53
:1049F000F1F7FDF7CDF800EBC00101EB00106168A5
:104A00008900CCE7001401400010014090F83910F3
:104A1000122903D0322901D0022070478168B1F5F4
:104A2000805F016A0BD04A1C0262026809785160FB
:104A3000C18C491E0904090CC1840ED017E00988F5
:104A40000268C1F30801516001690029016A02D0BE
:104A5000491C0162ECE7891CFBE70168CA6822F087
:104A60008002CA600068C16841F04001C160002056
:104A700070472DE9F0471D4690460F460446FCF767
:104A800021FE06465FEA08004FF000094FF00108DA
:104A900008D030E0681C05D095B1FCF713FE801BF0
:104AA000A8420DD82068006837EA0000F2D127E05C
:104AB000681C20D025B1FCF705FE801BA8421AD93E
:104AC0002068C16821F08001C1602068C16821F0C0
:104AD0002001C1602068C16821F48071C160206834
:104AE000416921F00101416184F8398084F83890EE
:104AF0000320BDE8F0872068006837EA0000D7D0BF
:104B00000020F6E738B5184800680068C043800602
:104B100022D44FF47A73012269461348FEF792F9C2
:104B2000124A1088010417D441049DF800104FF078
:104B3000000304D50A290ED140F4004012E00D29EB
:104B40000ED0C0F30D04084D401CC83D80B229555D
:104B50001080C72800D913800348FEF77FF838BDBE
:104B600040F480401080F7E7800300202000002000
:104B7000FEE7000070B5040300F03EF900F0E6F82F
:104B8000104D0020C5F88C022020FFF749FC0E488C
:104B90000088A0F56F41183902D1200EFFF740FCC4
:104BA000C4F30740FFF73CFCC4F30720FFF738FCD1
:104BB000E0B2FFF735FC0120C5F88C02BDE870407B
:104BC00000F0C4B80000434228000020F0B51C48A3
:104BD00087B00027016841F04001016000680124AE
:104BE00000F0400005900820CDE900040220CDE946
:104BF000024069461348FCF771FC134DC5F88C421E
:104C0000FFF7E6FB0020FFF71BFC00F061F80F4EFA
:104C1000014630800EA0FBF74DFB3088A0F56F41B8
:104C200016390BD1032000F075F8C00706D1C5F87E
:104C30008C72B720FFF7F4FBC5F88C4207B0F0BDCB
:104C40003038024000180240000043422800002093
:104C50005732355158585F54595045206973203A9E
:104C6000307825780D0A00002DE9F041164F0646F0
:104C7000002015460C46C7F88C020320FFF7D0FB36
:104C800012480088A0F56F41183902D1200EFFF7B5
:104C9000C7FBC4F30740FFF7C3FBC4F30720FFF7CC
:104CA000BFFBE0B2FFF7BCFB002405E0FF20FFF7ED
:104CB000B7FB3055641CA4B2AC42F7D30120C7F84F
:104CC0008C02BDE8F0810000000043422800002073
:104CD00070B50F4D0024C5F88C42902005F5237562
:104CE000FFF79EFB0020FFF79BFB0020FFF798FBE0
:104CF0000020FFF795FBFF20FFF792FB44EA00241A
:104D0000FF20FFF78DFB20430121296070BD0000CB
:104D10000000434210B5012803D0022803D0032825
:104D200003D0052002E0352000E01520064C0021CC
:104D3000C4F88C1204F52374FFF772FBFF20FFF711
:104D40006FFB0121216010BD0000434210B501201E
:104D5000FFF7E0FFC007FAD110BD00002DE9F05FBA
:104D6000C1F30B06DFF88C800F0BC6F580548A4622
:104D700081461546A24200D8144639038B464FF4AB
:104D800080524046FFF770FF002006E0321818F806
:104D90000210FF2903D1401C80B2A042F6D3A042EA
:104DA00021D23846FFF7E6FE002006E019F8002081
:104DB0008319401C08F8032080B2A042F6D359465C
:104DC0004FF48052404600F027F8A5420FD0281B30
:104DD000A144A244002685B24FF480547F1CA54212
:104DE000CBD82C46C9E7224651464846EBE7BDE8FA
:104DF000F09F00006007002010B5064C0020C4F8AA
:104E00008C02062004F52374FFF70AFB01202060C2
:104E100010BD0000000043422DE9F0410746C8B232
:104E2000C0F580740E461546A24200D814464FF4D1
:104E3000807822463146384600F00EF8A54208D068
:104E4000281B2744264485B24446A542F1D82C4667
:104E5000EFE7BDE8F08100002DE9F04115460C4672
:104E60000646FFF7C9FF154F0020C7F88C02022045
:104E7000FFF7D6FA12480088A0F56F41183902D121
:104E8000200EFFF7CDFAC4F30740FFF7C9FAC4F3C9
:104E90000720FFF7C5FAE0B2FFF7C2FA002404E0EA
:104EA000305DFFF7BDFA641CA4B2AC42F8D3012018
:104EB000C7F88C02BDE8F041FFF748BF000043424D
:104EC000280000207047000070B504460020E07004
:104ED000401E2063204601F057FD08B1042070BD3C
:104EE00004F2322001F08EFBA0F52A41553901D0A1
:104EF000032070BD04F16A0001F079FB074DB5EBAA
:104F0000002F06D004F1860001F071FBB5EB002FF5
:104F100001D1002070BD022070BD00000046415448
:104F200000E0401C02780AB18A42FAD1D0B2704740
:104F30000368826A480A5989B0FBF1F0121D02CA5F
:104F400019B1884203D3401AF8E70020704711686E
:104F5000084470478269891E921E8A4201D8002047
:104F60007047C26A408901FB002070472DE9F0417B
:104F700005680F00804606D001F022FA022809D207
:104F80000120BDE8F081EE6816B1A869B04207D8EB
:104F9000012605E0411CF4D0A9698142F1D83E46C2
:104FA0003446A869641CA04202D80224022E0AD307
:104FB0002146404601F004FA38B10128E1D0411CF5
:104FC000DFD0B442EDD10020DBE74FF0FF363246B0
:104FD0002146284601F0B8FD30B957B1224639467E
:104FE000284601F0B1FD20B101280FD00124204650
:104FF000C7E7EC60A9692869891E884201D2401E72
:105000002861287940F001002871F0E73446EEE786
:105010002DE9F05F006A8B46D1F8008081460B22B3
:10502000202101F07CFC002598F800002F463E4628
:105030004FF0080A2E281AD118F805006D1C2E28EA
:105040000DD02F2803D05C2801D0202858D808EB99
:105050000502CBF80020202807D8242067E0032D84
:105060004ED209F80600761CE6E720205FE018F82B
:1050700005406D1C202C0CD92F2C0AD05C2C08D09C
:105080002E2C01D056451AD3BAF1080F38D10EE0B4
:105090006D1C18F805002F28FAD05C28F8D008EB12
:1050A0000501CBF80010202C23D8042022E02E2C60
:1050B00026D10826B8064FF00B0A070ED7E7802C3A
:1050C0001ED221461CA0FFF72BFFC8B9A4F1410056
:1050D000192802D847F0020707E0A4F16100192857
:1050E00003D8203C47F00107E4B209F80640761CDB
:1050F000BDE7002026B199F80010E52903D005E0AE
:105100000620BDE8F09F052289F80020BAF1080FBB
:1051100001D1B9060F0E07F00301012901D140F0BA
:105120001000C7F38101012901D140F0080089F87E
:105130000B000020E5E70000222A2B2C3A3B3C3DE7
:105140003E3F5B5D7C7F000010B504460420FDF708
:1051500064FD0148046010BD1C00002070B50546C8
:1051600000244FF47A7603E0304600F005F8641C22
:10517000AC42F9D370BD000070B54FF0E0250021BE
:105180006C69094AAB6912685043AA699A42FCD01B
:1051900002D2A3EB020302E0A4EB0206334419445B
:1051A00013468142F1D370BD1C0000202DE9F0416F
:1051B0000E4605460021076800F010F988B9002462
:1051C0003846A96901F0E0FB58B9E9690978E52991
:1051D0000CD059B100240121284600F03CF80028E9
:1051E000EED0042800D10720BDE8F081641CB44251
:1051F000F1D1F9E72DE9F04104460021056800F0FE
:10520000EDF800281CD12846A16901F0BDFB00285B
:1052100016D1E1690A7892B1CA7A02F03F02A2710E
:10522000CA7A120710D4226A0B2311F8016B12F804
:10523000017BF61B5B1E05D0002EF6D004E0042097
:10524000BDE8F081002EFBD00021204600F003F8DD
:105250000028D8D0F4E72DE9F04705460468006936
:10526000894600F12008A86910B1B8F5001F02D3E3
:105270000420BDE8F0875FEAC8515AD1401CA861FC
:105280006969002729B16089401E10EA582F05D0AE
:105290004FE02189B1EB581F1DD94AE0284601F0A3
:1052A0008FF8064601281AD9701C30D0A069B04288
:1052B00039D8B9F1000F0ED028466969FFF756FEBC
:1052C00006000AD0012E0AD0701C20D0204601F022
:1052D0004DFDE0B905E0AF61CAE70720C9E702204C
:1052E000C7E74FF40072002104F1340001F017FB0E
:1052F000002731462046FFF72DFE4FF001092063BD
:105300000BE084F80390204601F030FD08B1012045
:10531000AFE7206B401C7F1C20636089B842F0D847
:10532000206BC01B2063314620466E61FFF712FEE2
:10533000A861C8F3080020443430C5F81080E86143
:10534000002096E770B504460D460420266821E04B
:10535000304601F019FB10BBE2691178B1B1D27A85
:10536000E52902F03F02A2710AD02E2908D00F2AA7
:1053700006D022F0200108290AD00021A94210D02D
:1053800000212046FFF767FF20B108E0042006E077
:105390000121F3E7A1690029DAD1002801D0002119
:1053A000A16170BD70B5044601210668FFF7FEFEDD
:1053B000050011D13046A16901F0E6FA05000BD1D4
:1053C00020220021E06901F0AAFAD4E907010B22AA
:1053D00001F09CFA0120F070284670BD2DE9F041E3
:1053E00007680D460646B1F5001F36D2E80634D1EF
:1053F0003561B46824B93878032805D3BC6A1CB178
:1054000078894FEA402812E03889B0EB551F24D93B
:10541000B86A12E0304600F0D3FF0446401C1AD0B0
:10542000022C1AD3B869A04217D9A5EB0805454547
:105430002146EFD23846FFF78DFDC6E9054060B141
:1054400000EB5520B061C5F3080038443430F061FA
:105450000020BDE8F0810120FBE70220F9E710B54C
:1054600020B1012805D0022809D105E0FEF7D0FCC3
:1054700004E0FFF7ABFB04E0FBF7D8FD08B1012027
:1054800010BD002010BD000030B54FF4007428B1ED
:1054900001281CD0022827D0012030BD39B11F4877
:1054A00001290BD0022904D003290ED103E00020EA
:1054B00030BD1460FBE7B0F8500020E0816CB0F81C
:1054C0004C00C30543EA512025E0042030BD0029EB
:1054D000EDD0012905D0022913D00329F5D10820E8
:1054E0000DE04FF4484016E00029E0D00C4D0129B2
:1054F0006B8808D0022904D00329E6D1580A10800D
:10550000D5E71480D3E7E889A97948435843C11700
:1055100000EBD15040121060C9E700005804002091
:10552000981700202DE9F0411C0015460E4607D0C3
:1055300048B14FF40072012811D0022821D11BE09C
:105540000420BDE8F0811A4602E0FEF761FC224625
:1055500029463046FEF74EFE0028F6D113E01746E6
:1055600069023A463046FFF77FFB641E05F10105EC
:1055700006F50076F4D106E029463046FBF7D4FD67
:1055800008B10120DDE70020DBE7002070472DE9AE
:10559000F0411C0015460E4607D048B14FF400728A
:1055A00001280ED002281ED118E00420BDE8F081A9
:1055B000E2B229463046FEF7CDFEB0B1FEF728FC38
:1055C000F6E7174669023A463046FFF7C7FB641E06
:1055D00005F1010506F50076F4D106E029463046CE
:1055E000FBF73AFE08B10120E0E70020DEE700000B
:1055F00070B5164D00244FF40D763146002001F0B1
:105600008DFA45F8240018B1641CE4B2032CF4D3DD
:105610004FF40B763146002001F080FA0C4D3146F4
:105620002860002001F07AFA68604FF400710020D1
:1056300001F074FAA860032C06D1296821B16968C9
:1056400011B108B1002070BD012070BD0CC0022056
:10565000580000202DE9F34796B00E4616994FF0FA
:1056600000094A4681F8009001A916A800F02EFD15
:10567000040072D1019813A90C9104904069354639
:105680000DF1340A4FF02F0806904BE0202104A8BA
:10569000FFF7A4FE040048D10A99019801F074F9BB
:1056A000040042D10B99019800F08EFF0690002172
:1056B00004A8FFF793FE040037D1002104A8FFF7E8
:1056C00041FE04000BD10B99019800F07DFFB84218
:1056D0000BD0002104A8FFF7BEFD0400EDD0042C80
:1056E00001D014BB01E002241FE00DA904A800F0C2
:1056F000C8FE0020524600E0401C1118497A0029DB
:10570000FAD1C11C8D4207D211240EE0401E83182D
:105710006D1E5B7A4B5500E016990028F6D16D1E80
:1057200001F80580069F002FB0D116989CB90D494D
:105730000978303100F8011B3A2100F8011BB5420D
:1057400002D100F8018B06E01699495D6D1C00F846
:10575000011BB542F8D380F8009018B02046BDE890
:10576000F0870000540000202DE9F74F88B017465D
:105770000998012803D913200BB0BDE8F08F08A8C1
:1057800000F0B4FE002801DA0B20F5E7FD4951F8DE
:1057900020504DB100212970C0B20190FFF75FFE8B
:1057A000C10703D00320E7E70C20E5E7400701D558
:1057B0000A20E1E703AA01210198FFF765FE00280E
:1057C0007DD1039880287AD3099909B1002100E09E
:1057D0003F218946A0EB0901781E0742039100D1C1
:1057E0007FB94FF4FA60B1FBF0F20020E64B00E025
:1057F000401C33F810409442FAD8E34A163232F88B
:105800001070B7F5007F00D37F0A87B1802F00D9D1
:105810008027B1FBF7F0012640F6F672904200D3E4
:1058200002264FF6F672904203D3032621E00127A9
:10583000EFE7032E1DD0012E25D04000001D00F201
:10584000FF104FEA50284FF0010A2020834609EB51
:105850000A000490404400EB0B04E219A2EB09009B
:10586000884247D802AA03210198FFF70DFEA8B984
:105870000FE040F2072202EB80004FEA50284FF081
:10588000200A0020E2E700EB4000401C4008C01C5A
:10589000D5E7029810B1B0F5004F01D90120029070
:1058A0002118401E491E8143081B0290032E13D06D
:1058B00080440398A0EB0A02A2EB080200E0D8E0C3
:1058C000A2EB0B01B1FBF7F10591022E09D0032EDB
:1058D0000CD0012E12D016E00499824408440490A2
:1058E000E7E740F6F672914204D30CE04FF6F6700B
:1058F000814201D20E203FE70C200AE0B0F5803F44
:1059000006D2012005E0B0F5803F01D2042000E07E
:1059100006200690099808B1F02038E005F134001F
:105920004FF400720021009000F0F9FF05F5F974C2
:1059300001206070A0700020E07006982071FE20A9
:105940006071039909EB010043F6C161B0FBF1F00E
:105950003F2141EA90010290A171E0713F2104F1E1
:10596000080001F0B3F904F10C00039901F0AEF95D
:105970004AF6552105F2322001F0B0F9DDE90010B8
:1059800001230022FFF703FE002872D1F82005F161
:1059900034044FF4007500902A460021204600F0A0
:1059A000BEFF0B2279A1204600F0B0FF294604F18A
:1059B0000B0001F093F967731FFA8AF104F10E00EE
:1059C00001F08CF901202074032E0ED0410204F165
:1059D000110001F083F90399B1F5803F07D289B234
:1059E00004F1130001F07AF905E00021EFE704F17A
:1059F000200001F06BF9009860753F2104F1180058
:105A000001F06CF9FF2104F11A0001F067F9494631
:105A100004F11C0001F05AF900F031FD8025014627
:105A20004FF0290A0290032E24D004F1270001F040
:105A30004DF91FFA88F104F1160001F04FF984F8CE
:105A4000245084F826A0132253A104F12B0000F067
:105A50005DFF04F5FF704AF65521069001F03EF90E
:105A600001234A4621460198FFF791FD002800D105
:105A700021E085E004F1430001F028F9414604F1FA
:105A8000240001F023F9022104F12C0001F01EF999
:105A9000012104F1300001F021F9062104F1320066
:105AA00001F01CF984F8405084F842A013223FA171
:105AB00004F14700CBE7032E06D1012309F10602CA
:105AC00021460198FFF763FD049D4FF0000A4FF453
:105AD00000720021204600F022FF00980290032E61
